{
  "_format": "hh-sol-artifact-1",
  "contractName": "AchievementNFT",
  "sourceName": "contracts/AchievementNFT.sol",
  "abi": [
    {
      "inputs": [
        {
          "internalType": "string",
          "name": "baseURI",
          "type": "string"
        }
      ],
      "stateMutability": "nonpayable",
      "type": "constructor"
    },
    {
      "inputs": [
        {
          "internalType": "address",
          "name": "sender",
          "type": "address"
        },
        {
          "internalType": "uint256",
          "name": "tokenId",
          "type": "uint256"
        },
        {
          "internalType": "address",
          "name": "owner",
          "type": "address"
        }
      ],
      "name": "ERC721IncorrectOwner",
      "type": "error"
    },
    {
      "inputs": [
        {
          "internalType": "address",
          "name": "operator",
          "type": "address"
        },
        {
          "internalType": "uint256",
          "name": "tokenId",
          "type": "uint256"
        }
      ],
      "name": "ERC721InsufficientApproval",
      "type": "error"
    },
    {
      "inputs": [
        {
          "internalType": "address",
          "name": "approver",
          "type": "address"
        }
      ],
      "name": "ERC721InvalidApprover",
      "type": "error"
    },
    {
      "inputs": [
        {
          "internalType": "address",
          "name": "operator",
          "type": "address"
        }
      ],
      "name": "ERC721InvalidOperator",
      "type": "error"
    },
    {
      "inputs": [
        {
          "internalType": "address",
          "name": "owner",
          "type": "address"
        }
      ],
      "name": "ERC721InvalidOwner",
      "type": "error"
    },
    {
      "inputs": [
        {
          "internalType": "address",
          "name": "receiver",
          "type": "address"
        }
      ],
      "name": "ERC721InvalidReceiver",
      "type": "error"
    },
    {
      "inputs": [
        {
          "internalType": "address",
          "name": "sender",
          "type": "address"
        }
      ],
      "name": "ERC721InvalidSender",
      "type": "error"
    },
    {
      "inputs": [
        {
          "internalType": "uint256",
          "name": "tokenId",
          "type": "uint256"
        }
      ],
      "name": "ERC721NonexistentToken",
      "type": "error"
    },
    {
      "inputs": [
        {
          "internalType": "address",
          "name": "owner",
          "type": "address"
        }
      ],
      "name": "OwnableInvalidOwner",
      "type": "error"
    },
    {
      "inputs": [
        {
          "internalType": "address",
          "name": "account",
          "type": "address"
        }
      ],
      "name": "OwnableUnauthorizedAccount",
      "type": "error"
    },
    {
      "anonymous": false,
      "inputs": [
        {
          "indexed": true,
          "internalType": "address",
          "name": "owner",
          "type": "address"
        },
        {
          "indexed": true,
          "internalType": "address",
          "name": "approved",
          "type": "address"
        },
        {
          "indexed": true,
          "internalType": "uint256",
          "name": "tokenId",
          "type": "uint256"
        }
      ],
      "name": "Approval",
      "type": "event"
    },
    {
      "anonymous": false,
      "inputs": [
        {
          "indexed": true,
          "internalType": "address",
          "name": "owner",
          "type": "address"
        },
        {
          "indexed": true,
          "internalType": "address",
          "name": "operator",
          "type": "address"
        },
        {
          "indexed": false,
          "internalType": "bool",
          "name": "approved",
          "type": "bool"
        }
      ],
      "name": "ApprovalForAll",
      "type": "event"
    },
    {
      "anonymous": false,
      "inputs": [
        {
          "indexed": true,
          "internalType": "address",
          "name": "previousOwner",
          "type": "address"
        },
        {
          "indexed": true,
          "internalType": "address",
          "name": "newOwner",
          "type": "address"
        }
      ],
      "name": "OwnershipTransferred",
      "type": "event"
    },
    {
      "anonymous": false,
      "inputs": [
        {
          "indexed": true,
          "internalType": "address",
          "name": "from",
          "type": "address"
        },
        {
          "indexed": true,
          "internalType": "address",
          "name": "to",
          "type": "address"
        },
        {
          "indexed": true,
          "internalType": "uint256",
          "name": "tokenId",
          "type": "uint256"
        }
      ],
      "name": "Transfer",
      "type": "event"
    },
    {
      "inputs": [
        {
          "internalType": "address",
          "name": "to",
          "type": "address"
        },
        {
          "internalType": "uint256",
          "name": "tokenId",
          "type": "uint256"
        }
      ],
      "name": "approve",
      "outputs": [],
      "stateMutability": "nonpayable",
      "type": "function"
    },
    {
      "inputs": [
        {
          "internalType": "address",
          "name": "owner",
          "type": "address"
        }
      ],
      "name": "balanceOf",
      "outputs": [
        {
          "internalType": "uint256",
          "name": "",
          "type": "uint256"
        }
      ],
      "stateMutability": "view",
      "type": "function"
    },
    {
      "inputs": [
        {
          "internalType": "uint256",
          "name": "tokenId",
          "type": "uint256"
        }
      ],
      "name": "getApproved",
      "outputs": [
        {
          "internalType": "address",
          "name": "",
          "type": "address"
        }
      ],
      "stateMutability": "view",
      "type": "function"
    },
    {
      "inputs": [
        {
          "internalType": "address",
          "name": "",
          "type": "address"
        }
      ],
      "name": "hasAchievement",
      "outputs": [
        {
          "internalType": "bool",
          "name": "",
          "type": "bool"
        }
      ],
      "stateMutability": "view",
      "type": "function"
    },
    {
      "inputs": [
        {
          "internalType": "address",
          "name": "owner",
          "type": "address"
        },
        {
          "internalType": "address",
          "name": "operator",
          "type": "address"
        }
      ],
      "name": "isApprovedForAll",
      "outputs": [
        {
          "internalType": "bool",
          "name": "",
          "type": "bool"
        }
      ],
      "stateMutability": "view",
      "type": "function"
    },
    {
      "inputs": [],
      "name": "mintAchievement",
      "outputs": [],
      "stateMutability": "nonpayable",
      "type": "function"
    },
    {
      "inputs": [],
      "name": "name",
      "outputs": [
        {
          "internalType": "string",
          "name": "",
          "type": "string"
        }
      ],
      "stateMutability": "view",
      "type": "function"
    },
    {
      "inputs": [],
      "name": "owner",
      "outputs": [
        {
          "internalType": "address",
          "name": "",
          "type": "address"
        }
      ],
      "stateMutability": "view",
      "type": "function"
    },
    {
      "inputs": [
        {
          "internalType": "uint256",
          "name": "tokenId",
          "type": "uint256"
        }
      ],
      "name": "ownerOf",
      "outputs": [
        {
          "internalType": "address",
          "name": "",
          "type": "address"
        }
      ],
      "stateMutability": "view",
      "type": "function"
    },
    {
      "inputs": [],
      "name": "renounceOwnership",
      "outputs": [],
      "stateMutability": "nonpayable",
      "type": "function"
    },
    {
      "inputs": [
        {
          "internalType": "address",
          "name": "from",
          "type": "address"
        },
        {
          "internalType": "address",
          "name": "to",
          "type": "address"
        },
        {
          "internalType": "uint256",
          "name": "tokenId",
          "type": "uint256"
        }
      ],
      "name": "safeTransferFrom",
      "outputs": [],
      "stateMutability": "nonpayable",
      "type": "function"
    },
    {
      "inputs": [
        {
          "internalType": "address",
          "name": "from",
          "type": "address"
        },
        {
          "internalType": "address",
          "name": "to",
          "type": "address"
        },
        {
          "internalType": "uint256",
          "name": "tokenId",
          "type": "uint256"
        },
        {
          "internalType": "bytes",
          "name": "data",
          "type": "bytes"
        }
      ],
      "name": "safeTransferFrom",
      "outputs": [],
      "stateMutability": "nonpayable",
      "type": "function"
    },
    {
      "inputs": [
        {
          "internalType": "address",
          "name": "operator",
          "type": "address"
        },
        {
          "internalType": "bool",
          "name": "approved",
          "type": "bool"
        }
      ],
      "name": "setApprovalForAll",
      "outputs": [],
      "stateMutability": "nonpayable",
      "type": "function"
    },
    {
      "inputs": [
        {
          "internalType": "string",
          "name": "baseURI",
          "type": "string"
        }
      ],
      "name": "setBaseURI",
      "outputs": [],
      "stateMutability": "nonpayable",
      "type": "function"
    },
    {
      "inputs": [
        {
          "internalType": "bytes4",
          "name": "interfaceId",
          "type": "bytes4"
        }
      ],
      "name": "supportsInterface",
      "outputs": [
        {
          "internalType": "bool",
          "name": "",
          "type": "bool"
        }
      ],
      "stateMutability": "view",
      "type": "function"
    },
    {
      "inputs": [],
      "name": "symbol",
      "outputs": [
        {
          "internalType": "string",
          "name": "",
          "type": "string"
        }
      ],
      "stateMutability": "view",
      "type": "function"
    },
    {
      "inputs": [
        {
          "internalType": "uint256",
          "name": "tokenId",
          "type": "uint256"
        }
      ],
      "name": "tokenURI",
      "outputs": [
        {
          "internalType": "string",
          "name": "",
          "type": "string"
        }
      ],
      "stateMutability": "view",
      "type": "function"
    },
    {
      "inputs": [
        {
          "internalType": "address",
          "name": "from",
          "type": "address"
        },
        {
          "internalType": "address",
          "name": "to",
          "type": "address"
        },
        {
          "internalType": "uint256",
          "name": "tokenId",
          "type": "uint256"
        }
      ],
      "name": "transferFrom",
      "outputs": [],
      "stateMutability": "nonpayable",
      "type": "function"
    },
    {
      "inputs": [
        {
          "internalType": "address",
          "name": "newOwner",
          "type": "address"
        }
      ],
      "name": "transferOwnership",
      "outputs": [],
      "stateMutability": "nonpayable",
      "type": "function"
    }
  ],
  "bytecode": "0x60806040523480156200001157600080fd5b5060405162002eac38038062002eac8339818101604052810190620000379190620003c3565b336040518060400160405280601681526020017f576f7264204d6174636820416368696576656d656e74000000000000000000008152506040518060400160405280600381526020017f574d4100000000000000000000000000000000000000000000000000000000008152508160009081620000b591906200065f565b508060019081620000c791906200065f565b505050600073ffffffffffffffffffffffffffffffffffffffff168173ffffffffffffffffffffffffffffffffffffffff16036200013f5760006040517f1e4fbdf70000000000000000000000000000000000000000000000000000000081526004016200013691906200078b565b60405180910390fd5b62000150816200016a60201b60201c565b5080600890816200016291906200065f565b5050620007a8565b6000600660009054906101000a900473ffffffffffffffffffffffffffffffffffffffff16905081600660006101000a81548173ffffffffffffffffffffffffffffffffffffffff021916908373ffffffffffffffffffffffffffffffffffffffff1602179055508173ffffffffffffffffffffffffffffffffffffffff168173ffffffffffffffffffffffffffffffffffffffff167f8be0079c531659141344cd1fd0a4f28419497f9722a3daafe3b4186f6b6457e060405160405180910390a35050565b6000604051905090565b600080fd5b600080fd5b600080fd5b600080fd5b6000601f19601f8301169050919050565b7f4e487b7100000000000000000000000000000000000000000000000000000000600052604160045260246000fd5b62000299826200024e565b810181811067ffffffffffffffff82111715620002bb57620002ba6200025f565b5b80604052505050565b6000620002d062000230565b9050620002de82826200028e565b919050565b600067ffffffffffffffff8211156200030157620003006200025f565b5b6200030c826200024e565b9050602081019050919050565b60005b83811015620003395780820151818401526020810190506200031c565b60008484015250505050565b60006200035c6200035684620002e3565b620002c4565b9050828152602081018484840111156200037b576200037a62000249565b5b6200038884828562000319565b509392505050565b600082601f830112620003a857620003a762000244565b5b8151620003ba84826020860162000345565b91505092915050565b600060208284031215620003dc57620003db6200023a565b5b600082015167ffffffffffffffff811115620003fd57620003fc6200023f565b5b6200040b8482850162000390565b91505092915050565b600081519050919050565b7f4e487b7100000000000000000000000000000000000000000000000000000000600052602260045260246000fd5b600060028204905060018216806200046757607f821691505b6020821081036200047d576200047c6200041f565b5b50919050565b60008190508160005260206000209050919050565b60006020601f8301049050919050565b600082821b905092915050565b600060088302620004e77fffffffffffffffffffffffffffffffffffffffffffffffffffffffffffffffff82620004a8565b620004f38683620004a8565b95508019841693508086168417925050509392505050565b6000819050919050565b6000819050919050565b6000620005406200053a62000534846200050b565b62000515565b6200050b565b9050919050565b6000819050919050565b6200055c836200051f565b620005746200056b8262000547565b848454620004b5565b825550505050565b600090565b6200058b6200057c565b6200059881848462000551565b505050565b5b81811015620005c057620005b460008262000581565b6001810190506200059e565b5050565b601f8211156200060f57620005d98162000483565b620005e48462000498565b81016020851015620005f4578190505b6200060c620006038562000498565b8301826200059d565b50505b505050565b600082821c905092915050565b6000620006346000198460080262000614565b1980831691505092915050565b60006200064f838362000621565b9150826002028217905092915050565b6200066a8262000414565b67ffffffffffffffff8111156200068657620006856200025f565b5b6200069282546200044e565b6200069f828285620005c4565b600060209050601f831160018114620006d75760008415620006c2578287015190505b620006ce858262000641565b8655506200073e565b601f198416620006e78662000483565b60005b828110156200071157848901518255600182019150602085019450602081019050620006ea565b868310156200073157848901516200072d601f89168262000621565b8355505b6001600288020188555050505b505050505050565b600073ffffffffffffffffffffffffffffffffffffffff82169050919050565b6000620007738262000746565b9050919050565b620007858162000766565b82525050565b6000602082019050620007a260008301846200077a565b92915050565b6126f480620007b86000396000f3fe608060405234801561001057600080fd5b50600436106101215760003560e01c806370a08231116100ad578063a22cb46511610071578063a22cb465146102f4578063b88d4fde14610310578063c87b56dd1461032c578063e985e9c51461035c578063f2fde38b1461038c57610121565b806370a0823114610274578063715018a6146102a45780638480da45146102ae5780638da5cb5b146102b857806395d89b41146102d657610121565b80630fb0764d116100f45780630fb0764d146101c057806323b872dd146101f057806342842e0e1461020c57806355f804b3146102285780636352211e1461024457610121565b806301ffc9a71461012657806306fdde0314610156578063081812fc14610174578063095ea7b3146101a4575b600080fd5b610140600480360381019061013b9190611a9c565b6103a8565b60405161014d9190611ae4565b60405180910390f35b61015e61048a565b60405161016b9190611b8f565b60405180910390f35b61018e60048036038101906101899190611be7565b61051c565b60405161019b9190611c55565b60405180910390f35b6101be60048036038101906101b99190611c9c565b610538565b005b6101da60048036038101906101d59190611cdc565b61054e565b6040516101e79190611ae4565b60405180910390f35b61020a60048036038101906102059190611d09565b61056e565b005b61022660048036038101906102219190611d09565b610670565b005b610242600480360381019061023d9190611e91565b610690565b005b61025e60048036038101906102599190611be7565b6106ab565b60405161026b9190611c55565b60405180910390f35b61028e60048036038101906102899190611cdc565b6106bd565b60405161029b9190611ee9565b60405180910390f35b6102ac610777565b005b6102b661078b565b005b6102c0610896565b6040516102cd9190611c55565b60405180910390f35b6102de6108c0565b6040516102eb9190611b8f565b60405180910390f35b61030e60048036038101906103099190611f30565b610952565b005b61032a60048036038101906103259190612011565b610968565b005b61034660048036038101906103419190611be7565b61098d565b6040516103539190611b8f565b60405180910390f35b61037660048036038101906103719190612094565b6109d1565b6040516103839190611ae4565b60405180910390f35b6103a660048036038101906103a19190611cdc565b610a65565b005b60007f80ac58cd000000000000000000000000000000000000000000000000000000007bffffffffffffffffffffffffffffffffffffffffffffffffffffffff1916827bffffffffffffffffffffffffffffffffffffffffffffffffffffffff1916148061047357507f5b5e139f000000000000000000000000000000000000000000000000000000007bffffffffffffffffffffffffffffffffffffffffffffffffffffffff1916827bffffffffffffffffffffffffffffffffffffffffffffffffffffffff1916145b80610483575061048282610aeb565b5b9050919050565b60606000805461049990612103565b80601f01602080910402602001604051908101604052809291908181526020018280546104c590612103565b80156105125780601f106104e757610100808354040283529160200191610512565b820191906000526020600020905b8154815290600101906020018083116104f557829003601f168201915b5050505050905090565b600061052782610b55565b5061053182610bdd565b9050919050565b61054a8282610545610c1a565b610c22565b5050565b60096020528060005260406000206000915054906101000a900460ff1681565b600073ffffffffffffffffffffffffffffffffffffffff168273ffffffffffffffffffffffffffffffffffffffff16036105e05760006040517f64a0ae920000000000000000000000000000000000000000000000000000000081526004016105d79190611c55565b60405180910390fd5b60006105f483836105ef610c1a565b610c34565b90508373ffffffffffffffffffffffffffffffffffffffff168173ffffffffffffffffffffffffffffffffffffffff161461066a578382826040517f64283d7b00000000000000000000000000000000000000000000000000000000815260040161066193929190612134565b60405180910390fd5b50505050565b61068b83838360405180602001604052806000815250610968565b505050565b610698610e4e565b80600890816106a79190612317565b5050565b60006106b682610b55565b9050919050565b60008073ffffffffffffffffffffffffffffffffffffffff168273ffffffffffffffffffffffffffffffffffffffff16036107305760006040517f89c62b640000000000000000000000000000000000000000000000000000000081526004016107279190611c55565b60405180910390fd5b600360008373ffffffffffffffffffffffffffffffffffffffff1673ffffffffffffffffffffffffffffffffffffffff168152602001908152602001600020549050919050565b61077f610e4e565b6107896000610ed5565b565b600960003373ffffffffffffffffffffffffffffffffffffffff1673ffffffffffffffffffffffffffffffffffffffff16815260200190815260200160002060009054906101000a900460ff1615610818576040517f08c379a000000000000000000000000000000000000000000000000000000000815260040161080f90612435565b60405180910390fd5b6007600081548092919061082b90612484565b919050555061083c33600754610f9b565b6001600960003373ffffffffffffffffffffffffffffffffffffffff1673ffffffffffffffffffffffffffffffffffffffff16815260200190815260200160002060006101000a81548160ff021916908315150217905550565b6000600660009054906101000a900473ffffffffffffffffffffffffffffffffffffffff16905090565b6060600180546108cf90612103565b80601f01602080910402602001604051908101604052809291908181526020018280546108fb90612103565b80156109485780601f1061091d57610100808354040283529160200191610948565b820191906000526020600020905b81548152906001019060200180831161092b57829003601f168201915b5050505050905090565b61096461095d610c1a565b8383610fb9565b5050565b61097384848461056e565b61098761097e610c1a565b85858585611128565b50505050565b606061099882610b55565b506109a16112d9565b6109aa8361136b565b6040516020016109bb929190612554565b6040516020818303038152906040529050919050565b6000600560008473ffffffffffffffffffffffffffffffffffffffff1673ffffffffffffffffffffffffffffffffffffffff16815260200190815260200160002060008373ffffffffffffffffffffffffffffffffffffffff1673ffffffffffffffffffffffffffffffffffffffff16815260200190815260200160002060009054906101000a900460ff16905092915050565b610a6d610e4e565b600073ffffffffffffffffffffffffffffffffffffffff168173ffffffffffffffffffffffffffffffffffffffff1603610adf5760006040517f1e4fbdf7000000000000000000000000000000000000000000000000000000008152600401610ad69190611c55565b60405180910390fd5b610ae881610ed5565b50565b60007f01ffc9a7000000000000000000000000000000000000000000000000000000007bffffffffffffffffffffffffffffffffffffffffffffffffffffffff1916827bffffffffffffffffffffffffffffffffffffffffffffffffffffffff1916149050919050565b600080610b6183611439565b9050600073ffffffffffffffffffffffffffffffffffffffff168173ffffffffffffffffffffffffffffffffffffffff1603610bd457826040517f7e273289000000000000000000000000000000000000000000000000000000008152600401610bcb9190611ee9565b60405180910390fd5b80915050919050565b60006004600083815260200190815260200160002060009054906101000a900473ffffffffffffffffffffffffffffffffffffffff169050919050565b600033905090565b610c2f8383836001611476565b505050565b600080610c4084611439565b9050600073ffffffffffffffffffffffffffffffffffffffff168373ffffffffffffffffffffffffffffffffffffffff1614610c8257610c8181848661163b565b5b600073ffffffffffffffffffffffffffffffffffffffff168173ffffffffffffffffffffffffffffffffffffffff1614610d1357610cc4600085600080611476565b6001600360008373ffffffffffffffffffffffffffffffffffffffff1673ffffffffffffffffffffffffffffffffffffffff168152602001908152602001600020600082825403925050819055505b600073ffffffffffffffffffffffffffffffffffffffff168573ffffffffffffffffffffffffffffffffffffffff1614610d96576001600360008773ffffffffffffffffffffffffffffffffffffffff1673ffffffffffffffffffffffffffffffffffffffff168152602001908152602001600020600082825401925050819055505b846002600086815260200190815260200160002060006101000a81548173ffffffffffffffffffffffffffffffffffffffff021916908373ffffffffffffffffffffffffffffffffffffffff160217905550838573ffffffffffffffffffffffffffffffffffffffff168273ffffffffffffffffffffffffffffffffffffffff167fddf252ad1be2c89b69c2b068fc378daa952ba7f163c4a11628f55a4df523b3ef60405160405180910390a4809150509392505050565b610e56610c1a565b73ffffffffffffffffffffffffffffffffffffffff16610e74610896565b73ffffffffffffffffffffffffffffffffffffffff1614610ed357610e97610c1a565b6040517f118cdaa7000000000000000000000000000000000000000000000000000000008152600401610eca9190611c55565b60405180910390fd5b565b6000600660009054906101000a900473ffffffffffffffffffffffffffffffffffffffff16905081600660006101000a81548173ffffffffffffffffffffffffffffffffffffffff021916908373ffffffffffffffffffffffffffffffffffffffff1602179055508173ffffffffffffffffffffffffffffffffffffffff168173ffffffffffffffffffffffffffffffffffffffff167f8be0079c531659141344cd1fd0a4f28419497f9722a3daafe3b4186f6b6457e060405160405180910390a35050565b610fb58282604051806020016040528060008152506116ff565b5050565b600073ffffffffffffffffffffffffffffffffffffffff168273ffffffffffffffffffffffffffffffffffffffff160361102a57816040517f5b08ba180000000000000000000000000000000000000000000000000000000081526004016110219190611c55565b60405180910390fd5b80600560008573ffffffffffffffffffffffffffffffffffffffff1673ffffffffffffffffffffffffffffffffffffffff16815260200190815260200160002060008473ffffffffffffffffffffffffffffffffffffffff1673ffffffffffffffffffffffffffffffffffffffff16815260200190815260200160002060006101000a81548160ff0219169083151502179055508173ffffffffffffffffffffffffffffffffffffffff168373ffffffffffffffffffffffffffffffffffffffff167f17307eab39ab6107e8899845ad3d59bd9653f200f220920489ca2b5937696c318360405161111b9190611ae4565b60405180910390a3505050565b60008373ffffffffffffffffffffffffffffffffffffffff163b11156112d2578273ffffffffffffffffffffffffffffffffffffffff1663150b7a02868685856040518563ffffffff1660e01b815260040161118794939291906125d8565b6020604051808303816000875af19250505080156111c357506040513d601f19601f820116820180604052508101906111c09190612639565b60015b611247573d80600081146111f3576040519150601f19603f3d011682016040523d82523d6000602084013e6111f8565b606091505b50600081510361123f57836040517f64a0ae920000000000000000000000000000000000000000000000000000000081526004016112369190611c55565b60405180910390fd5b805181602001fd5b63150b7a0260e01b7bffffffffffffffffffffffffffffffffffffffffffffffffffffffff1916817bffffffffffffffffffffffffffffffffffffffffffffffffffffffff1916146112d057836040517f64a0ae920000000000000000000000000000000000000000000000000000000081526004016112c79190611c55565b60405180910390fd5b505b5050505050565b6060600880546112e890612103565b80601f016020809104026020016040519081016040528092919081815260200182805461131490612103565b80156113615780601f1061133657610100808354040283529160200191611361565b820191906000526020600020905b81548152906001019060200180831161134457829003601f168201915b5050505050905090565b60606000600161137a84611723565b01905060008167ffffffffffffffff81111561139957611398611d66565b5b6040519080825280601f01601f1916602001820160405280156113cb5781602001600182028036833780820191505090505b509050600082602001820190505b60011561142e578080600190039150507f3031323334353637383961626364656600000000000000000000000000000000600a86061a8153600a858161142257611421612666565b5b049450600085036113d9575b819350505050919050565b60006002600083815260200190815260200160002060009054906101000a900473ffffffffffffffffffffffffffffffffffffffff169050919050565b80806114af5750600073ffffffffffffffffffffffffffffffffffffffff168273ffffffffffffffffffffffffffffffffffffffff1614155b156115e35760006114bf84610b55565b9050600073ffffffffffffffffffffffffffffffffffffffff168373ffffffffffffffffffffffffffffffffffffffff161415801561152a57508273ffffffffffffffffffffffffffffffffffffffff168173ffffffffffffffffffffffffffffffffffffffff1614155b801561153d575061153b81846109d1565b155b1561157f57826040517fa9fbf51f0000000000000000000000000000000000000000000000000000000081526004016115769190611c55565b60405180910390fd5b81156115e157838573ffffffffffffffffffffffffffffffffffffffff168273ffffffffffffffffffffffffffffffffffffffff167f8c5be1e5ebec7d5bd14f71427d1e84f3dd0314c0f7b2291e5b200ac8c7c3b92560405160405180910390a45b505b836004600085815260200190815260200160002060006101000a81548173ffffffffffffffffffffffffffffffffffffffff021916908373ffffffffffffffffffffffffffffffffffffffff16021790555050505050565b611646838383611876565b6116fa57600073ffffffffffffffffffffffffffffffffffffffff168373ffffffffffffffffffffffffffffffffffffffff16036116bb57806040517f7e2732890000000000000000000000000000000000000000000000000000000081526004016116b29190611ee9565b60405180910390fd5b81816040517f177e802f0000000000000000000000000000000000000000000000000000000081526004016116f1929190612695565b60405180910390fd5b505050565b6117098383611937565b61171e611714610c1a565b6000858585611128565b505050565b600080600090507a184f03e93ff9f4daa797ed6e38ed64bf6a1f0100000000000000008310611781577a184f03e93ff9f4daa797ed6e38ed64bf6a1f010000000000000000838161177757611776612666565b5b0492506040810190505b6d04ee2d6d415b85acef810000000083106117be576d04ee2d6d415b85acef810000000083816117b4576117b3612666565b5b0492506020810190505b662386f26fc1000083106117ed57662386f26fc1000083816117e3576117e2612666565b5b0492506010810190505b6305f5e1008310611816576305f5e100838161180c5761180b612666565b5b0492506008810190505b612710831061183b57612710838161183157611830612666565b5b0492506004810190505b6064831061185e576064838161185457611853612666565b5b0492506002810190505b600a831061186d576001810190505b80915050919050565b60008073ffffffffffffffffffffffffffffffffffffffff168373ffffffffffffffffffffffffffffffffffffffff161415801561192e57508273ffffffffffffffffffffffffffffffffffffffff168473ffffffffffffffffffffffffffffffffffffffff1614806118ef57506118ee84846109d1565b5b8061192d57508273ffffffffffffffffffffffffffffffffffffffff1661191583610bdd565b73ffffffffffffffffffffffffffffffffffffffff16145b5b90509392505050565b600073ffffffffffffffffffffffffffffffffffffffff168273ffffffffffffffffffffffffffffffffffffffff16036119a95760006040517f64a0ae920000000000000000000000000000000000000000000000000000000081526004016119a09190611c55565b60405180910390fd5b60006119b783836000610c34565b9050600073ffffffffffffffffffffffffffffffffffffffff168173ffffffffffffffffffffffffffffffffffffffff1614611a2b5760006040517f73c6ac6e000000000000000000000000000000000000000000000000000000008152600401611a229190611c55565b60405180910390fd5b505050565b6000604051905090565b600080fd5b600080fd5b60007fffffffff0000000000000000000000000000000000000000000000000000000082169050919050565b611a7981611a44565b8114611a8457600080fd5b50565b600081359050611a9681611a70565b92915050565b600060208284031215611ab257611ab1611a3a565b5b6000611ac084828501611a87565b91505092915050565b60008115159050919050565b611ade81611ac9565b82525050565b6000602082019050611af96000830184611ad5565b92915050565b600081519050919050565b600082825260208201905092915050565b60005b83811015611b39578082015181840152602081019050611b1e565b60008484015250505050565b6000601f19601f8301169050919050565b6000611b6182611aff565b611b6b8185611b0a565b9350611b7b818560208601611b1b565b611b8481611b45565b840191505092915050565b60006020820190508181036000830152611ba98184611b56565b905092915050565b6000819050919050565b611bc481611bb1565b8114611bcf57600080fd5b50565b600081359050611be181611bbb565b92915050565b600060208284031215611bfd57611bfc611a3a565b5b6000611c0b84828501611bd2565b91505092915050565b600073ffffffffffffffffffffffffffffffffffffffff82169050919050565b6000611c3f82611c14565b9050919050565b611c4f81611c34565b82525050565b6000602082019050611c6a6000830184611c46565b92915050565b611c7981611c34565b8114611c8457600080fd5b50565b600081359050611c9681611c70565b92915050565b60008060408385031215611cb357611cb2611a3a565b5b6000611cc185828601611c87565b9250506020611cd285828601611bd2565b9150509250929050565b600060208284031215611cf257611cf1611a3a565b5b6000611d0084828501611c87565b91505092915050565b600080600060608486031215611d2257611d21611a3a565b5b6000611d3086828701611c87565b9350506020611d4186828701611c87565b9250506040611d5286828701611bd2565b9150509250925092565b600080fd5b600080fd5b7f4e487b7100000000000000000000000000000000000000000000000000000000600052604160045260246000fd5b611d9e82611b45565b810181811067ffffffffffffffff82111715611dbd57611dbc611d66565b5b80604052505050565b6000611dd0611a30565b9050611ddc8282611d95565b919050565b600067ffffffffffffffff821115611dfc57611dfb611d66565b5b611e0582611b45565b9050602081019050919050565b82818337600083830152505050565b6000611e34611e2f84611de1565b611dc6565b905082815260208101848484011115611e5057611e4f611d61565b5b611e5b848285611e12565b509392505050565b600082601f830112611e7857611e77611d5c565b5b8135611e88848260208601611e21565b91505092915050565b600060208284031215611ea757611ea6611a3a565b5b600082013567ffffffffffffffff811115611ec557611ec4611a3f565b5b611ed184828501611e63565b91505092915050565b611ee381611bb1565b82525050565b6000602082019050611efe6000830184611eda565b92915050565b611f0d81611ac9565b8114611f1857600080fd5b50565b600081359050611f2a81611f04565b92915050565b60008060408385031215611f4757611f46611a3a565b5b6000611f5585828601611c87565b9250506020611f6685828601611f1b565b9150509250929050565b600067ffffffffffffffff821115611f8b57611f8a611d66565b5b611f9482611b45565b9050602081019050919050565b6000611fb4611faf84611f70565b611dc6565b905082815260208101848484011115611fd057611fcf611d61565b5b611fdb848285611e12565b509392505050565b600082601f830112611ff857611ff7611d5c565b5b8135612008848260208601611fa1565b91505092915050565b6000806000806080858703121561202b5761202a611a3a565b5b600061203987828801611c87565b945050602061204a87828801611c87565b935050604061205b87828801611bd2565b925050606085013567ffffffffffffffff81111561207c5761207b611a3f565b5b61208887828801611fe3565b91505092959194509250565b600080604083850312156120ab576120aa611a3a565b5b60006120b985828601611c87565b92505060206120ca85828601611c87565b9150509250929050565b7f4e487b7100000000000000000000000000000000000000000000000000000000600052602260045260246000fd5b6000600282049050600182168061211b57607f821691505b60208210810361212e5761212d6120d4565b5b50919050565b60006060820190506121496000830186611c46565b6121566020830185611eda565b6121636040830184611c46565b949350505050565b60008190508160005260206000209050919050565b60006020601f8301049050919050565b600082821b905092915050565b6000600883026121cd7fffffffffffffffffffffffffffffffffffffffffffffffffffffffffffffffff82612190565b6121d78683612190565b95508019841693508086168417925050509392505050565b6000819050919050565b600061221461220f61220a84611bb1565b6121ef565b611bb1565b9050919050565b6000819050919050565b61222e836121f9565b61224261223a8261221b565b84845461219d565b825550505050565b600090565b61225761224a565b612262818484612225565b505050565b5b818110156122865761227b60008261224f565b600181019050612268565b5050565b601f8211156122cb5761229c8161216b565b6122a584612180565b810160208510156122b4578190505b6122c86122c085612180565b830182612267565b50505b505050565b600082821c905092915050565b60006122ee600019846008026122d0565b1980831691505092915050565b600061230783836122dd565b9150826002028217905092915050565b61232082611aff565b67ffffffffffffffff81111561233957612338611d66565b5b6123438254612103565b61234e82828561228a565b600060209050601f831160018114612381576000841561236f578287015190505b61237985826122fb565b8655506123e1565b601f19841661238f8661216b565b60005b828110156123b757848901518255600182019150602085019450602081019050612392565b868310156123d457848901516123d0601f8916826122dd565b8355505b6001600288020188555050505b505050505050565b7f416368696576656d656e7420616c726561647920636c61696d65640000000000600082015250565b600061241f601b83611b0a565b915061242a826123e9565b602082019050919050565b6000602082019050818103600083015261244e81612412565b9050919050565b7f4e487b7100000000000000000000000000000000000000000000000000000000600052601160045260246000fd5b600061248f82611bb1565b91507fffffffffffffffffffffffffffffffffffffffffffffffffffffffffffffffff82036124c1576124c0612455565b5b600182019050919050565b600081905092915050565b60006124e282611aff565b6124ec81856124cc565b93506124fc818560208601611b1b565b80840191505092915050565b7f2e6a736f6e000000000000000000000000000000000000000000000000000000600082015250565b600061253e6005836124cc565b915061254982612508565b600582019050919050565b600061256082856124d7565b915061256c82846124d7565b915061257782612531565b91508190509392505050565b600081519050919050565b600082825260208201905092915050565b60006125aa82612583565b6125b4818561258e565b93506125c4818560208601611b1b565b6125cd81611b45565b840191505092915050565b60006080820190506125ed6000830187611c46565b6125fa6020830186611c46565b6126076040830185611eda565b8181036060830152612619818461259f565b905095945050505050565b60008151905061263381611a70565b92915050565b60006020828403121561264f5761264e611a3a565b5b600061265d84828501612624565b91505092915050565b7f4e487b7100000000000000000000000000000000000000000000000000000000600052601260045260246000fd5b60006040820190506126aa6000830185611c46565b6126b76020830184611eda565b939250505056fea2646970667358221220ad99e1bd410abeeebd661545e84796cb7d5678e4244723da818d72237cb4795564736f6c63430008140033",
  "linkReferences": {},
  "deployedLinkReferences": {}
}